{
  "_format": "hh-sol-artifact-1",
  "contractName": "FiiManagement",
  "sourceName": "contracts/FiiManagement.sol",
  "abi": [
    {
      "inputs": [
        {
          "internalType": "address",
          "name": "_blockImob",
          "type": "address"
        },
        {
          "internalType": "address",
          "name": "_gov",
          "type": "address"
        }
      ],
      "stateMutability": "nonpayable",
      "type": "constructor"
    },
    {
      "anonymous": false,
      "inputs": [
        {
          "indexed": true,
          "internalType": "address",
          "name": "owner",
          "type": "address"
        },
        {
          "indexed": true,
          "internalType": "address",
          "name": "spender",
          "type": "address"
        },
        {
          "indexed": true,
          "internalType": "uint256",
          "name": "id",
          "type": "uint256"
        }
      ],
      "name": "Approval",
      "type": "event"
    },
    {
      "anonymous": false,
      "inputs": [
        {
          "indexed": true,
          "internalType": "address",
          "name": "owner",
          "type": "address"
        },
        {
          "indexed": true,
          "internalType": "address",
          "name": "operator",
          "type": "address"
        },
        {
          "indexed": false,
          "internalType": "bool",
          "name": "approved",
          "type": "bool"
        }
      ],
      "name": "ApprovalForAll",
      "type": "event"
    },
    {
      "anonymous": false,
      "inputs": [
        {
          "indexed": true,
          "internalType": "uint256",
          "name": "_type",
          "type": "uint256"
        },
        {
          "indexed": true,
          "internalType": "address",
          "name": "_address",
          "type": "address"
        }
      ],
      "name": "FiiCreated",
      "type": "event"
    },
    {
      "anonymous": false,
      "inputs": [
        {
          "indexed": true,
          "internalType": "address",
          "name": "from",
          "type": "address"
        },
        {
          "indexed": true,
          "internalType": "address",
          "name": "to",
          "type": "address"
        },
        {
          "indexed": true,
          "internalType": "uint256",
          "name": "id",
          "type": "uint256"
        }
      ],
      "name": "Transfer",
      "type": "event"
    },
    {
      "anonymous": false,
      "inputs": [
        {
          "indexed": true,
          "internalType": "string",
          "name": "newBaseURI",
          "type": "string"
        },
        {
          "indexed": false,
          "internalType": "string",
          "name": "newBaseURIText",
          "type": "string"
        }
      ],
      "name": "UpdatedBaseURI",
      "type": "event"
    },
    {
      "anonymous": false,
      "inputs": [
        {
          "indexed": true,
          "internalType": "uint256",
          "name": "tokenId",
          "type": "uint256"
        },
        {
          "indexed": true,
          "internalType": "string",
          "name": "newURI",
          "type": "string"
        }
      ],
      "name": "UpdatedTokenURI",
      "type": "event"
    },
    {
      "inputs": [
        {
          "internalType": "uint256",
          "name": "",
          "type": "uint256"
        }
      ],
      "name": "FiiAddress",
      "outputs": [
        {
          "internalType": "address",
          "name": "",
          "type": "address"
        }
      ],
      "stateMutability": "view",
      "type": "function"
    },
    {
      "inputs": [
        {
          "internalType": "address",
          "name": "spender",
          "type": "address"
        },
        {
          "internalType": "uint256",
          "name": "id",
          "type": "uint256"
        }
      ],
      "name": "approve",
      "outputs": [],
      "stateMutability": "nonpayable",
      "type": "function"
    },
    {
      "inputs": [
        {
          "internalType": "address",
          "name": "owner",
          "type": "address"
        }
      ],
      "name": "balanceOf",
      "outputs": [
        {
          "internalType": "uint256",
          "name": "",
          "type": "uint256"
        }
      ],
      "stateMutability": "view",
      "type": "function"
    },
    {
      "inputs": [],
      "name": "baseURI",
      "outputs": [
        {
          "internalType": "string",
          "name": "",
          "type": "string"
        }
      ],
      "stateMutability": "view",
      "type": "function"
    },
    {
      "inputs": [
        {
          "internalType": "uint256",
          "name": "_type",
          "type": "uint256"
        },
        {
          "internalType": "string",
          "name": "_name",
          "type": "string"
        },
        {
          "internalType": "string",
          "name": "_symbol",
          "type": "string"
        },
        {
          "internalType": "uint8",
          "name": "_decimals",
          "type": "uint8"
        }
      ],
      "name": "createFii",
      "outputs": [],
      "stateMutability": "nonpayable",
      "type": "function"
    },
    {
      "inputs": [
        {
          "internalType": "uint256",
          "name": "",
          "type": "uint256"
        }
      ],
      "name": "getApproved",
      "outputs": [
        {
          "internalType": "address",
          "name": "",
          "type": "address"
        }
      ],
      "stateMutability": "view",
      "type": "function"
    },
    {
      "inputs": [
        {
          "internalType": "address",
          "name": "",
          "type": "address"
        },
        {
          "internalType": "address",
          "name": "",
          "type": "address"
        }
      ],
      "name": "isApprovedForAll",
      "outputs": [
        {
          "internalType": "bool",
          "name": "",
          "type": "bool"
        }
      ],
      "stateMutability": "view",
      "type": "function"
    },
    {
      "inputs": [
        {
          "internalType": "uint256",
          "name": "_type",
          "type": "uint256"
        }
      ],
      "name": "killFii",
      "outputs": [],
      "stateMutability": "nonpayable",
      "type": "function"
    },
    {
      "inputs": [],
      "name": "name",
      "outputs": [
        {
          "internalType": "string",
          "name": "",
          "type": "string"
        }
      ],
      "stateMutability": "view",
      "type": "function"
    },
    {
      "inputs": [],
      "name": "nextTokenId",
      "outputs": [
        {
          "internalType": "uint256",
          "name": "",
          "type": "uint256"
        }
      ],
      "stateMutability": "view",
      "type": "function"
    },
    {
      "inputs": [
        {
          "internalType": "uint256",
          "name": "id",
          "type": "uint256"
        }
      ],
      "name": "ownerOf",
      "outputs": [
        {
          "internalType": "address",
          "name": "owner",
          "type": "address"
        }
      ],
      "stateMutability": "view",
      "type": "function"
    },
    {
      "inputs": [
        {
          "internalType": "address",
          "name": "from",
          "type": "address"
        },
        {
          "internalType": "address",
          "name": "to",
          "type": "address"
        },
        {
          "internalType": "uint256",
          "name": "id",
          "type": "uint256"
        }
      ],
      "name": "safeTransferFrom",
      "outputs": [],
      "stateMutability": "nonpayable",
      "type": "function"
    },
    {
      "inputs": [
        {
          "internalType": "address",
          "name": "from",
          "type": "address"
        },
        {
          "internalType": "address",
          "name": "to",
          "type": "address"
        },
        {
          "internalType": "uint256",
          "name": "id",
          "type": "uint256"
        },
        {
          "internalType": "bytes",
          "name": "data",
          "type": "bytes"
        }
      ],
      "name": "safeTransferFrom",
      "outputs": [],
      "stateMutability": "nonpayable",
      "type": "function"
    },
    {
      "inputs": [
        {
          "internalType": "address",
          "name": "operator",
          "type": "address"
        },
        {
          "internalType": "bool",
          "name": "approved",
          "type": "bool"
        }
      ],
      "name": "setApprovalForAll",
      "outputs": [],
      "stateMutability": "nonpayable",
      "type": "function"
    },
    {
      "inputs": [
        {
          "internalType": "string",
          "name": "_newBaseURI",
          "type": "string"
        }
      ],
      "name": "setBaseURI",
      "outputs": [],
      "stateMutability": "nonpayable",
      "type": "function"
    },
    {
      "inputs": [
        {
          "internalType": "uint256",
          "name": "_tokenId",
          "type": "uint256"
        },
        {
          "internalType": "string",
          "name": "_uri",
          "type": "string"
        },
        {
          "internalType": "string",
          "name": "_newValue",
          "type": "string"
        }
      ],
      "name": "setTokenURI",
      "outputs": [],
      "stateMutability": "nonpayable",
      "type": "function"
    },
    {
      "inputs": [
        {
          "internalType": "bytes4",
          "name": "interfaceId",
          "type": "bytes4"
        }
      ],
      "name": "supportsInterface",
      "outputs": [
        {
          "internalType": "bool",
          "name": "",
          "type": "bool"
        }
      ],
      "stateMutability": "view",
      "type": "function"
    },
    {
      "inputs": [],
      "name": "symbol",
      "outputs": [
        {
          "internalType": "string",
          "name": "",
          "type": "string"
        }
      ],
      "stateMutability": "view",
      "type": "function"
    },
    {
      "inputs": [
        {
          "internalType": "uint256",
          "name": "",
          "type": "uint256"
        }
      ],
      "name": "tokenIdToURI",
      "outputs": [
        {
          "internalType": "string",
          "name": "",
          "type": "string"
        }
      ],
      "stateMutability": "view",
      "type": "function"
    },
    {
      "inputs": [
        {
          "internalType": "uint256",
          "name": "_tokenId",
          "type": "uint256"
        }
      ],
      "name": "tokenURI",
      "outputs": [
        {
          "internalType": "string",
          "name": "",
          "type": "string"
        }
      ],
      "stateMutability": "view",
      "type": "function"
    },
    {
      "inputs": [
        {
          "internalType": "address",
          "name": "from",
          "type": "address"
        },
        {
          "internalType": "address",
          "name": "to",
          "type": "address"
        },
        {
          "internalType": "uint256",
          "name": "id",
          "type": "uint256"
        }
      ],
      "name": "transferFrom",
      "outputs": [],
      "stateMutability": "nonpayable",
      "type": "function"
    }
  ],
  "bytecode": "0x60a06040526001600b553480156200001657600080fd5b5060405162003801380380620038018339810160408190526200003991620000ea565b6040518060400160405280600e81526020016d2334b490213930bd34b61023b7bb60911b8152506040518060400160405280600381526020016246696960e81b81525060016000819055508160019081620000959190620001c7565b506002620000a48282620001c7565b5050600780546001600160a01b0319166001600160a01b03948516179055501660805262000293565b80516001600160a01b0381168114620000e557600080fd5b919050565b60008060408385031215620000fe57600080fd5b6200010983620000cd565b91506200011960208401620000cd565b90509250929050565b634e487b7160e01b600052604160045260246000fd5b600181811c908216806200014d57607f821691505b6020821081036200016e57634e487b7160e01b600052602260045260246000fd5b50919050565b601f821115620001c257600081815260208120601f850160051c810160208610156200019d5750805b601f850160051c820191505b81811015620001be57828155600101620001a9565b5050505b505050565b81516001600160401b03811115620001e357620001e362000122565b620001fb81620001f4845462000138565b8462000174565b602080601f8311600181146200023357600084156200021a5750858301515b600019600386901b1c1916600185901b178555620001be565b600085815260208120601f198616915b82811015620002645788860151825594840194600190910190840162000243565b5085821015620002835787850151600019600388901b60f8161c191681555b5050505050600190811b01905550565b608051613552620002af6000396000610aeb01526135526000f3fe60806040523480156200001157600080fd5b5060043610620001955760003560e01c806363e6ea1c11620000e957806395d89b411162000097578063c87b56dd116200006e578063c87b56dd1462000367578063e8e04c3b146200037e578063e985e9c514620003aa57600080fd5b806395d89b41146200032f578063a22cb4651462000339578063b88d4fde146200035057600080fd5b806370a0823111620000cc57806370a0823114620002e857806375794a3c146200030e57806377f06adf146200031857600080fd5b806363e6ea1c14620002c75780636c0360eb14620002de57600080fd5b806323b872dd1162000147578063476d8d43116200012a578063476d8d43146200028257806355f804b314620002995780636352211e14620002b057600080fd5b806323b872dd146200025457806342842e0e146200026b57600080fd5b806306fdde03116200017c57806306fdde0314620001ec578063081812fc14620001f6578063095ea7b3146200023b57600080fd5b806301ffc9a7146200019a5780630221e78514620001c6575b600080fd5b620001b1620001ab36600462001754565b620003db565b60405190151581526020015b60405180910390f35b620001dd620001d73660046200177b565b6200047a565b604051620001bd9190620017e9565b620001dd6200051c565b62000222620002073660046200177b565b6005602052600090815260409020546001600160a01b031681565b6040516001600160a01b039091168152602001620001bd565b620002526200024c36600462001816565b6200052b565b005b620002526200026536600462001843565b62000630565b620002526200027c36600462001843565b6200084f565b62000252620002933660046200192f565b6200095f565b62000252620002aa366004620019bd565b62000bb0565b62000222620002c13660046200177b565b62000cd0565b62000252620002d83660046200177b565b62000d3c565b620001dd62000f07565b620002ff620002f9366004620019fe565b62000f16565b604051908152602001620001bd565b620002ff600b5481565b620002526200032936600462001a1c565b62000f8c565b620001dd620011ce565b620002526200034a36600462001a9f565b620011dd565b620002526200036136600462001adb565b62001249565b620001dd620003783660046200177b565b62001349565b620002226200038f3660046200177b565b6008602052600090815260409020546001600160a01b031681565b620001b1620003bb36600462001b7f565b600660209081526000928352604080842090915290825290205460ff1681565b60007f01ffc9a7000000000000000000000000000000000000000000000000000000006001600160e01b0319831614806200043f57507f80ac58cd000000000000000000000000000000000000000000000000000000006001600160e01b03198316145b806200047457507f5b5e139f000000000000000000000000000000000000000000000000000000006001600160e01b03198316145b92915050565b60096020526000908152604090208054620004959062001bb7565b80601f0160208091040260200160405190810160405280929190818152602001828054620004c39062001bb7565b8015620005145780601f10620004e85761010080835404028352916020019162000514565b820191906000526020600020905b815481529060010190602001808311620004f657829003601f168201915b505050505081565b60018054620004959062001bb7565b6000818152600360205260409020546001600160a01b0316338114806200057557506001600160a01b038116600090815260066020908152604080832033845290915290205460ff165b620005c75760405162461bcd60e51b815260206004820152600e60248201527f4e4f545f415554484f52495a454400000000000000000000000000000000000060448201526064015b60405180910390fd5b600082815260056020526040808220805473ffffffffffffffffffffffffffffffffffffffff19166001600160a01b0387811691821790925591518593918516917f8c5be1e5ebec7d5bd14f71427d1e84f3dd0314c0f7b2291e5b200ac8c7c3b92591a4505050565b6200063a6200148a565b6000818152600360205260409020546001600160a01b03848116911614620006a55760405162461bcd60e51b815260206004820152600a60248201527f57524f4e475f46524f4d000000000000000000000000000000000000000000006044820152606401620005be565b6001600160a01b038216620006fd5760405162461bcd60e51b815260206004820152601160248201527f494e56414c49445f524543495049454e540000000000000000000000000000006044820152606401620005be565b336001600160a01b03841614806200073857506001600160a01b038316600090815260066020908152604080832033845290915290205460ff165b806200075a57506000818152600560205260409020546001600160a01b031633145b620007a85760405162461bcd60e51b815260206004820152600e60248201527f4e4f545f415554484f52495a45440000000000000000000000000000000000006044820152606401620005be565b6001600160a01b03808416600081815260046020908152604080832080546000190190559386168083528483208054600101905585835260038252848320805473ffffffffffffffffffffffffffffffffffffffff199081168317909155600590925284832080549092169091559251849392917fddf252ad1be2c89b69c2b068fc378daa952ba7f163c4a11628f55a4df523b3ef91a46200084a6001600055565b505050565b620008596200148a565b6200086683838362000630565b6001600160a01b0382163b1580620009135750604051630a85bd0160e11b8082523360048301526001600160a01b03858116602484015260448301849052608060648401526000608484015290919084169063150b7a029060a4016020604051808303816000875af1158015620008e1573d6000803e3d6000fd5b505050506040513d601f19601f8201168201806040525081019062000907919062001bed565b6001600160e01b031916145b620009545760405162461bcd60e51b815260206004820152601060248201526f155394d0519157d49150d2541251539560821b6044820152606401620005be565b6200084a6001600055565b60075460405163a129abcd60e01b81523360048201526001600160a01b039091169063a129abcd90602401602060405180830381865afa158015620009a8573d6000803e3d6000fd5b505050506040513d601f19601f82011682018060405250810190620009ce919062001c0d565b62000a1c5760405162461bcd60e51b815260206004820152601b60248201527f466969204d616e6167656d656e743a204e6f7420616c6c6f77656400000000006044820152606401620005be565b6000848152600860205260409020546001600160a01b03161562000aa95760405162461bcd60e51b815260206004820152603560248201527f466969204d616e6167656d656e743a20466969207479706520616c726561647960448201527f206861766520612076616c6964206164647265737300000000000000000000006064820152608401620005be565b62000ab730600b54620014e5565b600b805490600062000ac98362001c2d565b91905055506000838383600760009054906101000a90046001600160a01b03167f000000000000000000000000000000000000000000000000000000000000000060405162000b18906200172c565b62000b2895949392919062001c55565b604051809103906000f08015801562000b45573d6000803e3d6000fd5b50600086815260086020526040808220805473ffffffffffffffffffffffffffffffffffffffff19166001600160a01b03851690811790915590519293509187917f2854a5826bd2d68176e82703f4c368fe5f5986354cf1632322eb8c87417c8cfd91a35050505050565b60075460405163a129abcd60e01b81523360048201526001600160a01b039091169063a129abcd90602401602060405180830381865afa15801562000bf9573d6000803e3d6000fd5b505050506040513d601f19601f8201168201806040525081019062000c1f919062001c0d565b62000c6d5760405162461bcd60e51b815260206004820152601b60248201527f466969204d616e6167656d656e743a204e6f7420616c6c6f77656400000000006044820152606401620005be565b600a62000c7b828262001cfb565b508060405162000c8c919062001dc8565b60405180910390207fd2877107a884510f506ed0bd833e6601f4344691e32a0ce4bcdedb1d9d9d28e18260405162000cc59190620017e9565b60405180910390a250565b6000818152600360205260409020546001600160a01b03168062000d375760405162461bcd60e51b815260206004820152600a60248201527f4e4f545f4d494e544544000000000000000000000000000000000000000000006044820152606401620005be565b919050565b60075460405163a129abcd60e01b81523360048201526001600160a01b039091169063a129abcd90602401602060405180830381865afa15801562000d85573d6000803e3d6000fd5b505050506040513d601f19601f8201168201806040525081019062000dab919062001c0d565b62000df95760405162461bcd60e51b815260206004820152601b60248201527f466969204d616e6167656d656e743a204e6f7420616c6c6f77656400000000006044820152606401620005be565b6000818152600860205260409020546001600160a01b031662000e855760405162461bcd60e51b815260206004820152603560248201527f466969204d616e6167656d656e743a20466969207479706520646f65736e277460448201527f206861766520612076616c6964206164647265737300000000000000000000006064820152608401620005be565b6000818152600860205260408082205481517fdece7af400000000000000000000000000000000000000000000000000000000815291516001600160a01b039091169263dece7af4926004808201939182900301818387803b15801562000eeb57600080fd5b505af115801562000f00573d6000803e3d6000fd5b5050505050565b600a8054620004959062001bb7565b60006001600160a01b03821662000f705760405162461bcd60e51b815260206004820152600c60248201527f5a45524f5f4144445245535300000000000000000000000000000000000000006044820152606401620005be565b506001600160a01b031660009081526004602052604090205490565b60075460405163a129abcd60e01b81523360048201526001600160a01b039091169063a129abcd90602401602060405180830381865afa15801562000fd5573d6000803e3d6000fd5b505050506040513d601f19601f8201168201806040525081019062000ffb919062001c0d565b620010495760405162461bcd60e51b815260206004820152601b60248201527f466969204d616e6167656d656e743a204e6f7420616c6c6f77656400000000006044820152606401620005be565b82600b5481106200109d5760405162461bcd60e51b815260206004820152601a60248201527f426c6f636b496d6f623a20496e76616c696420746f6b656e49640000000000006044820152606401620005be565b826000815111620010f15760405162461bcd60e51b815260206004820152601760248201527f426c6f636b496d6f623a204e6f2055524920676976656e0000000000000000006044820152606401620005be565b60008351116200116a5760405162461bcd60e51b815260206004820152602160248201527f426c6f636b496d6f623a204e6f2076616c75652061646465642f75706461746560448201527f64000000000000000000000000000000000000000000000000000000000000006064820152608401620005be565b600085815260096020526040902062001184858262001cfb565b508260405162001195919062001dc8565b6040519081900381209086907faab063d4691f636507767c2040fbab0b0e00a684d66a2f9640653ed5e7b859f990600090a35050505050565b60028054620004959062001bb7565b3360008181526006602090815260408083206001600160a01b03871680855290835292819020805460ff191686151590811790915590519081529192917f17307eab39ab6107e8899845ad3d59bd9653f200f220920489ca2b5937696c31910160405180910390a35050565b620012536200148a565b6200126085858562000630565b6001600160a01b0384163b1580620012fd5750604051630a85bd0160e11b808252906001600160a01b0386169063150b7a0290620012ab9033908a9089908990899060040162001de6565b6020604051808303816000875af1158015620012cb573d6000803e3d6000fd5b505050506040513d601f19601f82011682018060405250810190620012f1919062001bed565b6001600160e01b031916145b6200133e5760405162461bcd60e51b815260206004820152601060248201526f155394d0519157d49150d2541251539560821b6044820152606401620005be565b62000f006001600055565b606081600b5481106200139f5760405162461bcd60e51b815260206004820152601a60248201527f426c6f636b496d6f623a20496e76616c696420746f6b656e49640000000000006044820152606401620005be565b600a8054620013ae9062001bb7565b159050620013e157600a83604051602001620013cc92919062001e3a565b60405160208183030381529060405262001481565b60008381526009602052604090208054620013fc9062001bb7565b80601f01602080910402602001604051908101604052809291908181526020018280546200142a9062001bb7565b80156200147b5780601f106200144f576101008083540402835291602001916200147b565b820191906000526020600020905b8154815290600101906020018083116200145d57829003601f168201915b50505050505b91505b50919050565b600260005403620014de5760405162461bcd60e51b815260206004820152601f60248201527f5265656e7472616e637947756172643a207265656e7472616e742063616c6c006044820152606401620005be565b6002600055565b620014ef6200148a565b620014fb8282620015f5565b6001600160a01b0382163b1580620015a55750604051630a85bd0160e11b80825233600483015260006024830181905260448301849052608060648401526084830152906001600160a01b0384169063150b7a029060a4016020604051808303816000875af115801562001573573d6000803e3d6000fd5b505050506040513d601f19601f8201168201806040525081019062001599919062001bed565b6001600160e01b031916145b620015e65760405162461bcd60e51b815260206004820152601060248201526f155394d0519157d49150d2541251539560821b6044820152606401620005be565b620015f16001600055565b5050565b6001600160a01b0382166200164d5760405162461bcd60e51b815260206004820152601160248201527f494e56414c49445f524543495049454e540000000000000000000000000000006044820152606401620005be565b6000818152600360205260409020546001600160a01b031615620016b45760405162461bcd60e51b815260206004820152600e60248201527f414c52454144595f4d494e5445440000000000000000000000000000000000006044820152606401620005be565b6001600160a01b0382166000818152600460209081526040808320805460010190558483526003909152808220805473ffffffffffffffffffffffffffffffffffffffff19168417905551839291907fddf252ad1be2c89b69c2b068fc378daa952ba7f163c4a11628f55a4df523b3ef908290a45050565b6116398062001ee483390190565b6001600160e01b0319811681146200175157600080fd5b50565b6000602082840312156200176757600080fd5b813562001774816200173a565b9392505050565b6000602082840312156200178e57600080fd5b5035919050565b60005b83811015620017b257818101518382015260200162001798565b50506000910152565b60008151808452620017d581602086016020860162001795565b601f01601f19169290920160200192915050565b602081526000620017746020830184620017bb565b80356001600160a01b038116811462000d3757600080fd5b600080604083850312156200182a57600080fd5b6200183583620017fe565b946020939093013593505050565b6000806000606084860312156200185957600080fd5b6200186484620017fe565b92506200187460208501620017fe565b9150604084013590509250925092565b634e487b7160e01b600052604160045260246000fd5b600082601f830112620018ac57600080fd5b813567ffffffffffffffff80821115620018ca57620018ca62001884565b604051601f8301601f19908116603f01168101908282118183101715620018f557620018f562001884565b816040528381528660208588010111156200190f57600080fd5b836020870160208301376000602085830101528094505050505092915050565b600080600080608085870312156200194657600080fd5b84359350602085013567ffffffffffffffff808211156200196657600080fd5b62001974888389016200189a565b945060408701359150808211156200198b57600080fd5b506200199a878288016200189a565b925050606085013560ff81168114620019b257600080fd5b939692955090935050565b600060208284031215620019d057600080fd5b813567ffffffffffffffff811115620019e857600080fd5b620019f6848285016200189a565b949350505050565b60006020828403121562001a1157600080fd5b6200177482620017fe565b60008060006060848603121562001a3257600080fd5b83359250602084013567ffffffffffffffff8082111562001a5257600080fd5b62001a60878388016200189a565b9350604086013591508082111562001a7757600080fd5b5062001a86868287016200189a565b9150509250925092565b80151581146200175157600080fd5b6000806040838503121562001ab357600080fd5b62001abe83620017fe565b9150602083013562001ad08162001a90565b809150509250929050565b60008060008060006080868803121562001af457600080fd5b62001aff86620017fe565b945062001b0f60208701620017fe565b935060408601359250606086013567ffffffffffffffff8082111562001b3457600080fd5b818801915088601f83011262001b4957600080fd5b81358181111562001b5957600080fd5b89602082850101111562001b6c57600080fd5b9699959850939650602001949392505050565b6000806040838503121562001b9357600080fd5b62001b9e83620017fe565b915062001bae60208401620017fe565b90509250929050565b600181811c9082168062001bcc57607f821691505b6020821081036200148457634e487b7160e01b600052602260045260246000fd5b60006020828403121562001c0057600080fd5b815162001774816200173a565b60006020828403121562001c2057600080fd5b8151620017748162001a90565b60006001820162001c4e57634e487b7160e01b600052601160045260246000fd5b5060010190565b60a08152600062001c6a60a0830188620017bb565b828103602084015262001c7e8188620017bb565b60ff96909616604084015250506001600160a01b039283166060820152911660809091015292915050565b601f8211156200084a57600081815260208120601f850160051c8101602086101562001cd25750805b601f850160051c820191505b8181101562001cf35782815560010162001cde565b505050505050565b815167ffffffffffffffff81111562001d185762001d1862001884565b62001d308162001d29845462001bb7565b8462001ca9565b602080601f83116001811462001d68576000841562001d4f5750858301515b600019600386901b1c1916600185901b17855562001cf3565b600085815260208120601f198616915b8281101562001d995788860151825594840194600190910190840162001d78565b508582101562001db85787850151600019600388901b60f8161c191681555b5050505050600190811b01905550565b6000825162001ddc81846020870162001795565b9190910192915050565b60006001600160a01b03808816835280871660208401525084604083015260806060830152826080830152828460a0840137600060a0848401015260a0601f19601f85011683010190509695505050505050565b600080845462001e4a8162001bb7565b6001828116801562001e65576001811462001e7b5762001eac565b60ff198416875282151583028701945062001eac565b8860005260208060002060005b8581101562001ea35781548a82015290840190820162001e88565b50505082870194505b5050509381527f2e6a736f6e000000000000000000000000000000000000000000000000000000602082015260250194935050505056fe6101006040523480156200001257600080fd5b506040516200163938038062001639833981016040819052620000359162000219565b848484600062000046848262000351565b50600162000055838262000351565b5060ff81166080524660a0526200006b6200009b565b60c0525050600680546001600160a01b0319166001600160a01b03948516179055501660e052506200049b915050565b60007f8b73c3c69bb8fe3d512ecc4cf759cc79239f7b179b0ffacaa9a75d522b39400f6000604051620000cf91906200041d565b6040805191829003822060208301939093528101919091527fc89efdaa54c0f20c7adf612882df0950f5a951637e0307cdcb4c672f298b8bc660608201524660808201523060a082015260c00160405160208183030381529060405280519060200120905090565b634e487b7160e01b600052604160045260246000fd5b600082601f8301126200015f57600080fd5b81516001600160401b03808211156200017c576200017c62000137565b604051601f8301601f19908116603f01168101908282118183101715620001a757620001a762000137565b81604052838152602092508683858801011115620001c457600080fd5b600091505b83821015620001e85785820183015181830184015290820190620001c9565b600093810190920192909252949350505050565b80516001600160a01b03811681146200021457600080fd5b919050565b600080600080600060a086880312156200023257600080fd5b85516001600160401b03808211156200024a57600080fd5b6200025889838a016200014d565b965060208801519150808211156200026f57600080fd5b506200027e888289016200014d565b945050604086015160ff811681146200029657600080fd5b9250620002a660608701620001fc565b9150620002b660808701620001fc565b90509295509295909350565b600181811c90821680620002d757607f821691505b602082108103620002f857634e487b7160e01b600052602260045260246000fd5b50919050565b601f8211156200034c57600081815260208120601f850160051c81016020861015620003275750805b601f850160051c820191505b81811015620003485782815560010162000333565b5050505b505050565b81516001600160401b038111156200036d576200036d62000137565b62000385816200037e8454620002c2565b84620002fe565b602080601f831160018114620003bd5760008415620003a45750858301515b600019600386901b1c1916600185901b17855562000348565b600085815260208120601f198616915b82811015620003ee57888601518255948401946001909101908401620003cd565b50858210156200040d5787850151600019600388901b60f8161c191681555b5050505050600190811b01905550565b60008083546200042d81620002c2565b600182811680156200044857600181146200045e576200048f565b60ff19841687528215158302870194506200048f565b8760005260208060002060005b85811015620004865781548a8201529084019082016200046b565b50505082870194505b50929695505050505050565b60805160a05160c05160e05161115d620004dc60003960008181610c5d0152610ce0015260006104cd0152600061049801526000610190015261115d6000f3fe608060405234801561001057600080fd5b506004361061011b5760003560e01c80637ecebe00116100b2578063a9059cbb11610081578063d505accf11610066578063d505accf14610261578063dd62ed3e14610274578063dece7af41461029f57600080fd5b8063a9059cbb1461023b578063b58b6e291461024e57600080fd5b80637ecebe00146101f5578063872697291461021557806395d89b411461021e578063a2b40d191461022657600080fd5b8063313ce567116100ee578063313ce5671461018b5780633644e515146101c45780633a98ef39146101cc57806370a08231146101d557600080fd5b806306fdde0314610120578063095ea7b31461013e57806318160ddd1461016157806323b872dd14610178575b600080fd5b6101286102a7565b6040516101359190610e0f565b60405180910390f35b61015161014c366004610e79565b610335565b6040519015158152602001610135565b61016a60025481565b604051908152602001610135565b610151610186366004610ea3565b6103a2565b6101b27f000000000000000000000000000000000000000000000000000000000000000081565b60405160ff9091168152602001610135565b61016a610494565b61016a60085481565b61016a6101e3366004610edf565b60036020526000908152604090205481565b61016a610203366004610edf565b60056020526000908152604090205481565b61016a60075481565b6101286104ef565b610239610234366004610f01565b6104fc565b005b610151610249366004610e79565b6105ee565b61023961025c366004610f01565b610666565b61023961026f366004610f1a565b61091e565b61016a610282366004610f8d565b600460209081526000928352604080842090915290825290205481565b610239610b8c565b600080546102b490610fc0565b80601f01602080910402602001604051908101604052809291908181526020018280546102e090610fc0565b801561032d5780601f106103025761010080835404028352916020019161032d565b820191906000526020600020905b81548152906001019060200180831161031057829003601f168201915b505050505081565b3360008181526004602090815260408083206001600160a01b038716808552925280832085905551919290917f8c5be1e5ebec7d5bd14f71427d1e84f3dd0314c0f7b2291e5b200ac8c7c3b925906103909086815260200190565b60405180910390a35060015b92915050565b6001600160a01b038316600090815260046020908152604080832033845290915281205460001981146103fe576103d98382611010565b6001600160a01b03861660009081526004602090815260408083203384529091529020555b6001600160a01b03851660009081526003602052604081208054859290610426908490611010565b90915550506001600160a01b03808516600081815260036020526040908190208054870190555190918716907fddf252ad1be2c89b69c2b068fc378daa952ba7f163c4a11628f55a4df523b3ef906104819087815260200190565b60405180910390a3506001949350505050565b60007f000000000000000000000000000000000000000000000000000000000000000046146104ca576104c5610d0a565b905090565b507f000000000000000000000000000000000000000000000000000000000000000090565b600180546102b490610fc0565b60065460405163a129abcd60e01b81523360048201526001600160a01b039091169063a129abcd90602401602060405180830381865afa158015610544573d6000803e3d6000fd5b505050506040513d601f19601f820116820180604052508101906105689190611023565b6105b95760405162461bcd60e51b815260206004820152601060248201527f4669693a204e6f7420616c6c6f7765640000000000000000000000000000000060448201526064015b60405180910390fd5b6007819055604051339082907fbd9d5a917cf0648d861d58fc7347957fedec0883f273c2d2514a02f90ad5499e90600090a350565b3360009081526003602052604081208054839190839061060f908490611010565b90915550506001600160a01b038316600081815260036020526040908190208054850190555133907fddf252ad1be2c89b69c2b068fc378daa952ba7f163c4a11628f55a4df523b3ef906103909086815260200190565b600854816002546106779190611045565b11156106c55760405162461bcd60e51b815260206004820152601b60248201527f4669693a2043616e2774206d696e74206d6f726520736861726573000000000060448201526064016105b0565b806007546106d39190611058565b6040516370a0823160e01b815233600482015273e8537a3d056da446677b9e9d6c5db704eaab4787906370a0823190602401602060405180830381865afa158015610722573d6000803e3d6000fd5b505050506040513d601f19601f82011682018060405250810190610746919061106f565b10156107945760405162461bcd60e51b815260206004820152601d60248201527f4669693a204e6f7420656e6f75676820746f6b656e7320746f2062757900000060448201526064016105b0565b806007546107a29190611058565b6040517fdd62ed3e00000000000000000000000000000000000000000000000000000000815233600482015230602482015273e8537a3d056da446677b9e9d6c5db704eaab47879063dd62ed3e90604401602060405180830381865afa158015610810573d6000803e3d6000fd5b505050506040513d601f19601f82011682018060405250810190610834919061106f565b10156108825760405162461bcd60e51b815260206004820152601960248201527f4669693a20416c6c6f77616e6365206e6f7420656e6f7567680000000000000060448201526064016105b0565b600061089133306007546103a2565b9050806108e05760405162461bcd60e51b815260206004820152601d60248201527f4669693a205075726368617365205472616e73666572204661696c656400000060448201526064016105b0565b6108ea3383610da4565b600754604051339084907fa89172ffb7d061ac494264e5d719daa0b3ec422121feb77a9ff76a7e28af6ef390600090a45050565b4284101561096e5760405162461bcd60e51b815260206004820152601760248201527f5045524d49545f444541444c494e455f4558504952454400000000000000000060448201526064016105b0565b6000600161097a610494565b6001600160a01b038a811660008181526005602090815260409182902080546001810190915582517f6e71edae12b1b97f4d1f60370fef10105fa2faae0126114a169c64845d6126c98184015280840194909452938d166060840152608083018c905260a083019390935260c08083018b90528151808403909101815260e0830190915280519201919091207f19010000000000000000000000000000000000000000000000000000000000006101008301526101028201929092526101228101919091526101420160408051601f198184030181528282528051602091820120600084529083018083525260ff871690820152606081018590526080810184905260a0016020604051602081039080840390855afa158015610aa1573d6000803e3d6000fd5b5050604051601f1901519150506001600160a01b03811615801590610ad75750876001600160a01b0316816001600160a01b0316145b610b235760405162461bcd60e51b815260206004820152600e60248201527f494e56414c49445f5349474e455200000000000000000000000000000000000060448201526064016105b0565b6001600160a01b0390811660009081526004602090815260408083208a8516808552908352928190208990555188815291928a16917f8c5be1e5ebec7d5bd14f71427d1e84f3dd0314c0f7b2291e5b200ac8c7c3b925910160405180910390a350505050505050565b60065460405163a129abcd60e01b81523360048201526001600160a01b039091169063a129abcd90602401602060405180830381865afa158015610bd4573d6000803e3d6000fd5b505050506040513d601f19601f82011682018060405250810190610bf89190611023565b610c445760405162461bcd60e51b815260206004820152601060248201527f4669693a204e6f7420616c6c6f7765640000000000000000000000000000000060448201526064016105b0565b6040516370a0823160e01b8152306004820152610cdd907f00000000000000000000000000000000000000000000000000000000000000009073e8537a3d056da446677b9e9d6c5db704eaab4787906370a0823190602401602060405180830381865afa158015610cb9573d6000803e3d6000fd5b505050506040513d601f19601f82011682018060405250810190610249919061106f565b507f00000000000000000000000000000000000000000000000000000000000000006001600160a01b0316ff5b60007f8b73c3c69bb8fe3d512ecc4cf759cc79239f7b179b0ffacaa9a75d522b39400f6000604051610d3c9190611088565b6040805191829003822060208301939093528101919091527fc89efdaa54c0f20c7adf612882df0950f5a951637e0307cdcb4c672f298b8bc660608201524660808201523060a082015260c00160405160208183030381529060405280519060200120905090565b8060026000828254610db69190611045565b90915550506001600160a01b0382166000818152600360209081526040808320805486019055518481527fddf252ad1be2c89b69c2b068fc378daa952ba7f163c4a11628f55a4df523b3ef910160405180910390a35050565b600060208083528351808285015260005b81811015610e3c57858101830151858201604001528201610e20565b506000604082860101526040601f19601f8301168501019250505092915050565b80356001600160a01b0381168114610e7457600080fd5b919050565b60008060408385031215610e8c57600080fd5b610e9583610e5d565b946020939093013593505050565b600080600060608486031215610eb857600080fd5b610ec184610e5d565b9250610ecf60208501610e5d565b9150604084013590509250925092565b600060208284031215610ef157600080fd5b610efa82610e5d565b9392505050565b600060208284031215610f1357600080fd5b5035919050565b600080600080600080600060e0888a031215610f3557600080fd5b610f3e88610e5d565b9650610f4c60208901610e5d565b95506040880135945060608801359350608088013560ff81168114610f7057600080fd5b9699959850939692959460a0840135945060c09093013592915050565b60008060408385031215610fa057600080fd5b610fa983610e5d565b9150610fb760208401610e5d565b90509250929050565b600181811c90821680610fd457607f821691505b602082108103610ff457634e487b7160e01b600052602260045260246000fd5b50919050565b634e487b7160e01b600052601160045260246000fd5b8181038181111561039c5761039c610ffa565b60006020828403121561103557600080fd5b81518015158114610efa57600080fd5b8082018082111561039c5761039c610ffa565b808202811582820484141761039c5761039c610ffa565b60006020828403121561108157600080fd5b5051919050565b600080835481600182811c9150808316806110a457607f831692505b602080841082036110c357634e487b7160e01b86526022600452602486fd5b8180156110d757600181146110ec57611119565b60ff1986168952841515850289019650611119565b60008a81526020902060005b868110156111115781548b8201529085019083016110f8565b505084890196505b50949897505050505050505056fea264697066735822122094cf25c47bbefcad3dd52d51bbbfc8c33ba58d0ab2510b044bb3baa861103e1064736f6c63430008110033a2646970667358221220892b854570cabbe735d04a43c13189efce434681eda8375f7fa224350cb652e664736f6c63430008110033",
  "linkReferences": {},
  "deployedLinkReferences": {}
}